{
  "contractName": "Voting",
  "abi": [
    {
      "constant": true,
      "inputs": [
        {
          "name": "",
          "type": "bytes32"
        }
      ],
      "name": "votingsReceived",
      "outputs": [
        {
          "name": "",
          "type": "uint8"
        }
      ],
      "payable": false,
      "stateMutability": "view",
      "type": "function"
    },
    {
      "constant": true,
      "inputs": [
        {
          "name": "",
          "type": "uint256"
        }
      ],
      "name": "projectList",
      "outputs": [
        {
          "name": "",
          "type": "bytes32"
        }
      ],
      "payable": false,
      "stateMutability": "view",
      "type": "function"
    },
    {
      "inputs": [
        {
          "name": "projectNames",
          "type": "bytes32[]"
        }
      ],
      "payable": false,
      "stateMutability": "nonpayable",
      "type": "constructor"
    },
    {
      "constant": true,
      "inputs": [
        {
          "name": "project",
          "type": "bytes32"
        }
      ],
      "name": "totalVotesFor",
      "outputs": [
        {
          "name": "",
          "type": "uint8"
        }
      ],
      "payable": false,
      "stateMutability": "view",
      "type": "function"
    },
    {
      "constant": false,
      "inputs": [
        {
          "name": "project",
          "type": "bytes32"
        }
      ],
      "name": "voteForProject",
      "outputs": [],
      "payable": false,
      "stateMutability": "nonpayable",
      "type": "function"
    }
  ],
  "bytecode": "0x608060405234801561001057600080fd5b50604051610337380380610337833981018060405281019080805182019291905050508060019080519060200190610049929190610050565b50506100c8565b828054828255906000526020600020908101928215610092579160200282015b82811115610091578251829060001916905591602001919060010190610070565b5b50905061009f91906100a3565b5090565b6100c591905b808211156100c15760008160009055506001016100a9565b5090565b90565b610260806100d76000396000f300608060405260043610610062576000357c0100000000000000000000000000000000000000000000000000000000900463ffffffff16806306fea58a146100675780632f265cf7146100985780633b681f41146100e357806360570b2e1461012e575b600080fd5b34801561007357600080fd5b506100966004803603810190808035600019169060200190929190505050610177565b005b3480156100a457600080fd5b506100c760048036038101908080356000191690602001909291905050506101c0565b604051808260ff1660ff16815260200191505060405180910390f35b3480156100ef57600080fd5b5061011260048036038101908080356000191690602001909291905050506101f1565b604051808260ff1660ff16815260200191505060405180910390f35b34801561013a57600080fd5b5061015960048036038101908080359060200190929190505050610211565b60405180826000191660001916815260200191505060405180910390f35b6001600080836000191660001916815260200190815260200160002060008282829054906101000a900460ff160192506101000a81548160ff021916908360ff16021790555050565b6000806000836000191660001916815260200190815260200160002060009054906101000a900460ff169050919050565b60006020528060005260406000206000915054906101000a900460ff1681565b60018181548110151561022057fe5b9060005260206000200160009150905054815600a165627a7a72305820b806c22f30eaad25aaa8159b401a23fe8d69c7eacf9a2d9a3f5a42cb3e7728030029",
  "source": "pragma solidity ^0.4.17;\n// We have to specify what version of compiler this code will compile with\n\ncontract Voting {\n  /* mapping field below is equivalent to an associative array or hash.\n  */\n  \n    mapping (bytes32 => uint8) public votingsReceived;\n    \n    /* We will use an array of bytes32 to store the list of projects\n    */\n    \n    bytes32[] public projectList;\n\n    /* This is the constructor which will be called once when we\n    deploy the contract to the blockchain. When we deploy the contract,\n    we will pass an array of project names for which users will give votings\n    */\n    constructor (bytes32[] projectNames) public {\n        projectList = projectNames;\n    }\n\n    // This function returns the total votings a project has received so far\n    function totalVotesFor(bytes32 project) view public returns (uint8) {\n        return votingsReceived[project];\n    }\n\n    // This function increments the vote count for the specified project. Equivalent to upvoting\n    function voteForProject(bytes32 project) public {\n        votingsReceived[project] += 1;\n    }\n}",
  "sourcePath": "/Users/nuwan/Projects/Asha/blockchain_gov_sc/contracts/Voting.sol",
  "compiler": {
    "name": "solc",
    "version": "0.4.24+commit.e67f0147.Emscripten.clang"
  },
  "schemaVersion": "2.0.1",
  "updatedAt": "2018-10-01T08:36:22.545Z"
}